:100000000C94AD020C94F4020C94F4020C94F402DF
:100010000C94F4020C94F4020C94F4020C94F40288
:100020000C94F4020C94F4020C94052D0C94D72D2E
:100030000C94BF270C94F4020C94F4020C94F40278
:100040000C94F4020C94F4020C94F4020C94F40258
:100050000C94F4020C9434280C94F4020C94F402E2
:100060000C94F4020C94F4020C94F4020C94F40238
:100070000C94F4020C94F4020C94F4020C94F40228
:100080000C94F4020C94F4020C94F4020C94F40218
:100090000C94F4020C94F4020C94F4020C94F40208
:1000A0000C94F4020C94F4020C94F4020E14171441
:1000B0001C14211426142B14301435143A143F1434
:1000C000441449144E14531458145D1462146714E4
:1000D0006C14711476147B14801485140F18121884
:1000E00017181E18231828182D18321837183C18FE
:1000F0004118461848184A184C18521852185218E5
:1001000052185218C71DC71DF91DF91D461E641E41
:10011000781F781F6F1E081F191F191F182018201D
:100120002A202A2021202A202A202A2018201820AC
:1001300026202A202A202620442E6B2E632F6B2E69
:10014000632FB72EDA2E632F312F402F01001E00B0
:100150001F0020002100220023002400250026008B
:1001600027002D002E002A002B0014001A00080082
:10017000150017001C0018000C00120013002F00BF
:1001800030003100296104001600070009000A0050
:100190000B000D000E000F0033003400000028009B
:1001A000E1001D001B0006001900050011001000F1
:1001B000360037003872520000004C41E000E20087
:1001C000E300000000002C000000000035003800B3
:1001D0005000510000004F0002513A003B003C002B
:1001E0003D003E003F00400041004200430044000B
:1001F00045004C003900C35CC65CC75CC85CC95C88
:10020000CA5CCB5C46004700480052000100005C1D
:100210000100A900AA00A800B00001005500540088
:100220004A004B0050004F000000DF5C0100C45C3E
:10023000C55CCC5CCD5C0100570056004D004E0003
:100240005100BD000000010001000100010000009C
:1002500000000100000000004C005100AC00BE0096
:100260000000AB00010001000100010001000100DD
:100270000100010001000100010001000100010076
:100280000100010001000100010001000100010066
:100290000100010001000100010001000100010056
:1002A0000100010001000100010001000100010046
:1002B0000100010000000100010001000100010037
:1002C00001000100145C01000100010001000100B7
:1002D0000000010001000100010000000000010019
:1002E0000000000001000100010001000000010009
:1002F00000010101010101010101020202020202E9
:1003000002020203030303030303030404040404BB
:100310000404050505050506060606060707070782
:100320000708080808090909090A0A0A0B0B0B0C37
:100330000C0C0D0D0D0E0E0E0F0F0F1010111111D4
:100340001212131314141515161617171818191955
:100350001A1A1B1B1C1D1D1E1E1F202021222223BA
:100360002424252626272829292A2B2C2D2D2E2FFB
:1003700030313232333435363738393A3B3C3D3E12
:100380003F404142434445464748494A4C4D4E4F01
:1003900050515354555658595A5B5D5E5F616264C3
:1003A000656668696B6C6D6F7072737577787A7B50
:1003B0007D7E8082838587888A8C8E8F91939596A7
:1003C000989A9C9EA0A2A3A5A7A9ABADAFB1B3B5C7
:1003D000B7BABCBEC0C2C4C6C9CBCDCFD1D4D6D8A3
:1003E000DBDDDFE2E4E7E9EBEEF0F3F5F8FAFDFF41
:1003F000100344005A00360030005200470042000B
:1004000000000E0344005A00540045004300480019
:1004100000000403090409023B00020100A0FA09DC
:100420000400000103010100092111010001224023
:10043000000705810308000A090401000103000008
:100440000009211101000122B600070582032000E6
:100450000A12011001000000085A44211102000193
:1004600002000105010902A10185020901A100059F
:100470000919012908150025019508750181020552
:1004800001093009311581257F950275088106091A
:10049000381581257F950175088106050C0A3802FB
:1004A0001581257F950175088106C0C00501098069
:1004B000A101850319012AB700150126B70095018E
:1004C00075108100C0050C0901A101850419012ADC
:1004D000A002150126A002950175108100C005013A
:1004E0000906A1018505050719E029E71500250181
:1004F0009508750181020507190029EF15002501EE
:1005000095F0750181020508190129059505750108
:100510009102950175039101C005010906A101052C
:100520000719E029E7150025019508750181029555
:1005300001750881010507190029FF150026FF0034
:1005400095067508810005081901290595057501AD
:100550009102950175039101C00011241FBECFEFD8
:10056000DAE0DEBFCDBF04B603FE27C080912407CA
:1005700090912507A0912607B09127078730904BCF
:10058000A740B04BD1F41092240710922507109287
:1005900026071092270714BE84B7877F84BF0FB643
:1005A000F894A89580916000886180936000109213
:1005B00060000FBEE0E0F8E3099513E0A0E0B1E0D1
:1005C000E2ECF1E602C005900D92A63AB107D9F728
:1005D00027E0A6EAB3E001C01D92A432B207E1F71A
:1005E0000E94342A0C94DF300C94000081E00E94B9
:1005F0000B150C94872780E00E940B150C946D2737
:100600000E943E1B81FF07C02FEF4FEF6FEF88E284
:1006100090E00C94290D089581E0089581E00895FB
:100620000C940E0308950C9412031F93CF93DF9341
:1006300000D000D01F92CDB7DEB749835A836B83B9
:100640003091800489819A81311114C0662359F058
:10065000222349F00E94D424182F682F89819A817F
:100660000E947D2403C00E94A824182F69817A81EA
:10067000812F04C00E94D42469817A810F900F9049
:100680000F900F900F90DF91CF911F910C94CD039D
:10069000FC01262F408151816281738184810C94F9
:1006A0001503CF93DF93EC0160E00E944803BE0185
:1006B000DF91CF910C9413030E9485280E9401269C
:1006C000811102C00E94A8260E94DD140C94D2055C
:1006D0000C94CE0508950E9406200E946A032FEF15
:1006E00084E39CE0215080409040E1F700C000008E
:1006F0000C945A280F931F93CF93DF93EC0161E082
:100700000E9448038C01BE010E941003882379F1E6
:10071000BE01C8010E94CB18882349F1BE01C8015F
:100720000E941D19882319F1BE01C8010E94481AB0
:100730008823E9F0BE01C8010E94F8178823B9F0A8
:100740008A81882369F001158CE5180731F00F3D87
:100750001C4531F40E94A8260AC00E946B0307C002
:10076000CE01DF91CF911F910F910C940C0380E08B
:10077000DF91CF911F910F91089508950C94BD03BF
:1007800081E008950C94C003CF93C82F0E94BE034C
:100790008C2F0E94C203CF91089526E4829FC0014E
:1007A0001124FC012EE0729FE00DF11D1124E60FD3
:1007B000F11DEE0FFF1FE45BFE4F859194910895AC
:1007C000CF93DF930E94CD030E94E204EC018115D8
:1007D00021E5920708F043C0811540E5940708F031
:1007E0008AC0883E910520F5803E910508F0E6C05C
:1007F000883A910570F4853A910508F074C081300B
:10080000910509F4DBC008F4D7C0049708F0D6C0FE
:10081000D3C08F3B910508F0CFC0C85AD0E0CC0FB1
:10082000DD1FCF5DDC4F0990D881C02DD464C6C0D8
:10083000C11580E2D80758F4C11521E0D20708F0AD
:10084000BDC0CD3ED10508F4B7C0D065B7C0C11555
:1008500040E4D40708F4B0C0DF70D06AAFC0C1155F
:1008600085E5D807A0F4C11524E5D20708F08AC0B1
:10087000C11543E5D40708F06FC0C11582E5D8075C
:1008800008F054C0DC2FCC27C16FD06A97C0C115C7
:1008900029E5D207A0F4C11548E5D40708F077C0D0
:1008A000C11586E5D80708F087C08C2F0E94760511
:1008B0008F71C82FD0E0DC2FCC27D0627FC0C1154C
:1008C0002AE5D20708F468C0CE01905681159042FF
:1008D00008F072C08D2F8F710E947605DD27D062DF
:1008E0008F71D82B6BC0C55AD0E0C15BDC4FC8817B
:1008F000D0E0D06463C074E0969587957A95E1F76F
:1009000083709C2F937021E030E002C0220F331FD0
:100910009A95E2F73C68382BCF70C695C69580E271
:10092000C89FE0011124C22BD32B48C0CE01837095
:10093000992721E030E002C0220F331F8A95E2F7A9
:100940008C2F8695869540E2849FC0011124E90191
:10095000C82BD92BDC6832C0CE018370992721E0E7
:1009600030E002C0220F331F8A95E2F78C2F869564
:10097000869540E2849FC0011124E901C82BD92B40
:10098000DA681CC0DC2FCC27C46FD06A17C0DC2FFC
:10099000CC27C06FD06A12C08C2F8F700E94760552
:1009A00094E0D695C7959A95E1F7CF70D0E0DC2F0B
:1009B000CC27D069C82B02C0C0E0D0E0CE01DF91C7
:1009C000CF9108958238910569F1B0F48133910592
:1009D00009F46DC048F48932910509F463C08A3284
:1009E000910509F469C008958533910509F455C04E
:1009F00089339105B9F00895833E910569F138F482
:100A0000803E9105B1F0823E910509F10895863E40
:100A10009105A9F1873E9105B9F1843E910509F050
:100A200064C023C02091150720FD4FC021FD4DC09B
:100A300008958091150780FD44C08091160780FFBE
:100A400044C08091150784FD42C083EE4DC0809163
:100A5000150782FF38C0F5CF8091150782FD33C09E
:100A60008091160780FD31C0ECCF8091160781FF81
:100A700032C08091150784FD2AC087EE35C0809171
:100A8000150783FF26C0F5CF8091150783FD21C090
:100A90008091160781FD1FC0ECCF8091150785FD61
:100AA0001CC01DC08091150785FD19C016C080911E
:100AB000150786FD16C017C08091150786FD13C067
:100AC00010C089E311C082EE0FC080EE0DC080E03F
:100AD0000BC086EE09C084EE07C089E205C085E33D
:100AE00003C08AE201C081E390E008959091150768
:100AF00092FF0DC0282F2871283019F4877F846059
:100B000006C0282F2471243011F48B7F886093FF56
:100B10000DC0282F2871283119F4877E846106C002
:100B2000282F2471243111F48B7E886120911607BF
:100B300020FF0DC0382F3871383019F4877F81605D
:100B400006C0382F3171313011F48E7F886021FF5B
:100B50000DC0282F2871283119F4877E816106C0C5
:100B6000282F2171213111F48E7E886194FD877EBA
:100B70000895E82FF0E0EE0FFF1FEF5BFA4F808142
:100B800091810895089580EA8A95F1F7089500C04B
:100B900008950C94C30508950C94CB050C94CC05D2
:100BA0000C94CB050C94D005F894E82FE295EF70E7
:100BB000F0E031A1282F2F7081E090E001C0880F74
:100BC0002A95EAF7982F9095932391A392A1892BC8
:100BD00082A3789408950F931F93CF93DF9385EFAB
:100BE0000E94D40584EF0E94D40581EF0E94D405B1
:100BF00083E30E94D40582E30E94D405C2E5D3E0DA
:100C000000E613E089910E94D4050C171D07D1F767
:100C1000E7E3F5E0A1E4B5E0119211921D921D9277
:100C200085E0E134F807C1F785E00E94B006DF9166
:100C3000CF911F910F910C945C037F928F929F92A2
:100C4000AF92BF92CF92DF92EF92FF920F931F93DA
:100C5000CF93DF9307E315E080E6E82E83E0F82EDC
:100C6000C0E0D0E0712CAA24A394B12C4701F70175
:100C70008081F894E82FE295EF70F0E021A18F7069
:100C8000A50102C0440F551F8A95E2F7CA01922FB1
:100C9000982B91A392A18095892382A378940E9496
:100CA000C705E2E5F3E020E030E0C12CD12C419112
:100CB000A42FA295AF70B0E090968C9190E04F7009
:100CC00002C0959587954A95E2F780FD08C0C50159
:100CD000022E02C0880F991F0A94E2F702C080E03A
:100CE00090E0C82AD92A2F5F3F4F2E303105F9F600
:100CF0005FEFE51AF50AF40180810E94D405C43043
:100D0000D10511F00E94C905F80180819181C816B2
:100D1000D90621F0D182C08281E001C080E0782A2A
:100D200021960E5F1F4FC530D10509F09FCF272DAB
:100D300045E061E475E087E395E00E94B1060E941A
:100D40006803872DDF91CF911F910F91FF90EF9056
:100D5000DF90CF90BF90AF909F908F907F9008953D
:100D60000895FF920F931F93CF93DF93F82E092FCF
:100D7000162FD72FC42F222349F081E08093AA0396
:100D80000E94F1279093A9038093A8038091AA035E
:100D90008823D9F08091A8039091A9030E94092883
:100DA000049798F0EF2DF02FA12FBD2F80E090E059
:100DB0004C2F50E08417950734F4219131912D93F5
:100DC0003D930196F7CF1092AA03DF91CF911F9127
:100DD0000F91FF9008958091B10380FF0BC0609147
:100DE0000C0285E0689FB001112475956795759593
:100DF00067952BC081FF09C060910C0285E0689F58
:100E0000B00111247595679520C082FF07C06091DD
:100E10000C0285E0689FB001112417C09091B003C7
:100E20009923D1F060910B02961788F720910C025C
:100E300085E0289F90011124929FA001939F500D5F
:100E4000112470E0CA010E94AB2F6038710540F494
:100E50006115710519F406C065E070E0862F0895EC
:100E60008FE7089581E008958091B10380FF08C065
:100E70006091080270E0759567957595679521C03A
:100E800081FF06C06091080270E07595679519C0F2
:100E900082FF04C06091080270E010C09091AF031F
:100EA000992399F0609107029617A0F780910802A4
:100EB000899FC001112470E00E94AB2F603871053A
:100EC00040F46115710519F406C061E070E0862FE9
:100ED00008958FE7089581E008958D3E21F40E94E2
:100EE000EB06819504C08E3E29F40E94EB068093A8
:100EF000B50308958F3E21F40E94EB06819504C04E
:100F0000803F29F40E94EB068093B4030895893F43
:100F100019F40E94340705C08A3F31F40E94340757
:100F200081958093B60308958B3F21F40E94340786
:100F3000819504C08C3F29F40E9434078093B70345
:100F400008959FE0980F983078F421E030E0A901EF
:100F500002C0440F551F9A95E2F7CA019091B3035E
:100F6000892B8093B30308958D3F21F48091B103C1
:100F700081600BC08E3F21F48091B103826005C077
:100F80008F3F29F48091B10384608093B103089569
:100F90008D3E39F49091B50397FF35C01092B5039B
:100FA00059C08E3E29F49091B5031916BCF32BC09D
:100FB0009091B4038F3E29F497FF25C01092B4039B
:100FC00049C0803F19F41916CCF31DC09091B603A7
:100FD000893F29F41916BCF41092B6033BC08A3F2E
:100FE00019F497FF10C0F8CF8B3F39F49091B703F5
:100FF00097FF09C01092B7032DC08C3F21F4909148
:10100000B7031916BCF39FE0980F983080F421E0E5
:1010100030E0A90102C0440F551F9A95E2F7CA01BA
:1010200080959091B30389238093B30313C08D3FC0
:1010300021F48091B1038E7F0BC08E3F21F480910B
:10104000B1038D7F05C08F3F29F48091B1038B7F61
:101050008093B1038091B403811106C08091B503E0
:10106000811102C01092B0038091B603811106C0B5
:101070008091B703811102C01092AF0308950E94BE
:10108000F1272091B403211104C02091B50322233C
:1010900021F09093AE038093AD032091B60321110C
:1010A00004C02091B703222321F09093AC038093D6
:1010B000AB0382EB93E00C94651BEF92FF920F93CE
:1010C0001F93CF93DF9300D000D000D0CDB7DEB711
:1010D00086E0E2EBF3E0DE01119601900D928A9535
:1010E000E1F7E090B403F090B5030091B6031091DE
:1010F000B7031092B4031092B5031092B603109286
:10110000B703E11003C0FF2009F45DC08091AD0377
:101110009091AE030E940928AC019091B0039923ED
:1011200039F020910D0230E02417350758F04BC0FC
:1011300020910E028AE0289F900111242417350780
:1011400018F041C09F3F19F09F5F9093B003EE20CD
:1011500061F00E94EB061E1414F09FEF01C091E0B5
:10116000989F902D11249093B403FF2061F00E946A
:10117000EB061F1414F09FEF01C091E0989F902D93
:1011800011249093B5033091B4033323E1F02091FF
:10119000B5032223C1F045EB3403C0011124992388
:1011A00019F09093B40303C081E08093B40335EB4E
:1011B0002303C0011124992319F09093B50303C0B0
:1011C00081E08093B503011103C0112309F45DC0D0
:1011D0008091AB039091AC030E940928AC019091DF
:1011E000AF03992339F02091090230E02417350725
:1011F00058F04BC020910A028AE0289F90011124E8
:101200002417350718F041C09F3F19F09F5F909356
:10121000AF03002361F00E943407101614F09FEF13
:1012200001C091E0989F902D11249093B603112353
:1012300061F00E943407111614F09FEF01C091E095
:10124000989F902D11249093B7033091B6033323C8
:10125000E1F02091B7032223C1F045EB3403C00134
:101260001124992319F09093B60303C081E0809371
:10127000B60335EB2303C0011124992319F0909391
:10128000B70303C081E08093B7038091B403811159
:101290000BC08091B503811107C08091B603811105
:1012A00003C08091B70381110E943F08EB82FC824A
:1012B0000D831E8386E0FE013196A2EBB3E0019020
:1012C0000D928A95E1F726960FB6F894DEBF0FBE11
:1012D000CDBFDF91CF911F910F91FF90EF900895B7
:1012E000E2EBF3E086E0DF011D928A95E9F71092C8
:1012F000B0031092AF031092B1030895EF92FF92E2
:101300000F931F93CF93DF938B01682F11110AC0A6
:10131000442329F0E82FF0E0E051FD4F6491762F4F
:10132000862F75C0212F30E0E82FF0E0442321F014
:10133000E051FD4FE491F0E046E0049FC00111242C
:10134000CFEFD0E0BE010E94972F4BEA4603C001C9
:10135000479F900D1124800F911D800F911D982F94
:10136000990F890FAE01421B530B4E9FD0014F9F27
:10137000B00D5E9FB00D11249B2F189FA00111246A
:10138000452F55278E01041B150B0E9FA0010F9FA3
:10139000500D1E9F500D11247E01E81AF108E29EA7
:1013A0008001E39E100DF29E100D1124212F332792
:1013B000C21BD30BCE9F9001CF9F300DDE9F300D0F
:1013C000112462307105A9F048F46115710569F0C6
:1013D00061307105C9F48B2F752F0DC06430710514
:1013E00081F058F06630710579F47E2F8B2F932FA2
:1013F0000DC0832F7B2F9E2F09C08E2F7B2F952F03
:1014000005C08E2F732F02C07E2F852F692FDF918D
:10141000CF911F910F91FF90EF90089541E00E94AE
:101420007E09089520E030E0869F212D969F200DB3
:10143000311D1124C9010895BC018230910508F4C1
:101440000895613E8EE1780748F49B0195E036955A
:1014500027959A95E1F748E0420F01C04FEF91E0E0
:10146000242F30E0290F311D35952795229FF0015B
:10147000239FF00DF00D11246E177F0718F44FEF26
:10148000420F04C02F3F39F091E0920F491740F707
:101490008FEF890F08958FEF0895482F982F46FDFD
:1014A0009095E92FEF739F7046FD9F5FE295EF7077
:1014B000EE0FF0E0EB59FC4F2181299F802D212D6B
:1014C000112482958F702295207F822B3081982F56
:1014D000930F892F47FD819580580895E42FF0E000
:1014E000EE0FFF1FE65BFE4F408134EE439F412D20
:1014F0001124E82FF0E050E0445E5F4FDA01A21BB8
:10150000B1099D01B7FF03C031952195310993E0E1
:10151000220F331F9A95E1F7AF01421B530B9A013B
:1015200057FF02C020E030E0582F259F212D1124C5
:10153000822F0895622F0895E42FF0E0EE0FFF1F31
:10154000E65BFE4F6081621B0895E42FF0E0EE0F32
:10155000FF1FE55BFE4F6081621B0895A22F50E0E4
:10156000FA01EE0FFF1FE55BFE4F9081905297FD51
:101570009195440F551FFA01E65BFE4F3081232FF2
:1015800030E02A1B3109290F311D97FD3A95620F72
:101590000895EF920F931F9393E0099F8001112408
:1015A000159507956E2D600F1F910F91EF9008957F
:1015B0000F93CF93DF93D72FC82F47FD4195E8E3D3
:1015C000F0E0CF01841B910947FD9395889FB001FE
:1015D000899F700D700D1124229FC001239F900DD3
:1015E000900D1124860F971F0E941C0A682F660F0A
:1015F000860F682F600F7D2F8C2FDF91CF910F9179
:1016000008950F931F93522F10E0F801EE0FFF1F64
:10161000E55BFE4FE081F0E0B0979F015203D001FF
:10162000539FB00D1124000F111FF801E65BFE4F10
:10163000008110E00057110940039001419F300DD7
:1016400011242A0F3B1F37FF02C021583F4F220FA2
:10165000232F221F330B620F1F910F9108950F93B9
:101660001F93522F10E0F801EE0FFF1FE55BFE4FB6
:10167000E081F0E0B097EE0FFF1F9F015203D00111
:10168000539FB00D1124000F111FF801E65BFE4FB0
:10169000008110E000571109000F111F4003900155
:1016A000419F300D11242A0F3B1F37FF02C02158E4
:1016B0003F4F220F232F221F330B620F1F910F91D9
:1016C00008950F931F9310E0F801EE0FFF1FE65BE4
:1016D000FE4F9081905797FD9195000F111FF801D3
:1016E000E55BFE4FE081F0E0B097DF01AA0FBB1F82
:1016F0008D010E0F1F1F2003D001219FB00D11245B
:10170000E8E3F0E0E91BF10997FDF3959F01220F53
:10171000331F89010E0F1F1F40039001419F300DA1
:1017200011242A0F3B1F37FF02C021583F4F220FC1
:10173000232F221F330B620F1F910F9108954095A5
:10174000282F429F412D1124842F089522E8241B25
:1017500008F420E0620F0895FC019B01009721F43A
:1017600077FF2BC080E80895AC0197FF04C04427A1
:101770005527481B590BB901640F751F37FD0CC065
:10178000241B350BC901A5E0880F991FAA95E1F725
:101790000E94AB2F80E20CC0CB0165E0880F991F3F
:1017A0006A95E1F7BA01621B730B0E94AB2F80E6CA
:1017B000861BF7FF03C08195089580E00895FF928E
:1017C0000F931F93CF93DF93F62ED72F182FC901B6
:1017D000C12FC01BBA010E94AC0B982F990F890F23
:1017E000C81B2C2F219F212D1124822F6F2D7D2F7F
:1017F000DF91CF911F910F91FF900895EF920F937A
:101800001F93CF93DF93D62FC72F182FC9010E191F
:10181000010FBA010E94AC0B081B202F219F212D24
:101820001124822F6D2F7C2FDF91CF911F910F916B
:10183000EF9008950F93CF93DF93D72FC82FC9014F
:10184000BA010E94AC0B682F600F7D2F8C2FDF91A7
:10185000CF910F910895EF920F93CF93DF93D72FEE
:10186000C82FC9010E19BA010E94AC0B602F681B6A
:101870007D2F8C2FDF91CF910F91EF9008950E94D3
:101880000E0A08951F93CF93DF935FEF580FA1E0E7
:10189000A80F4FEF460F91E0960FC82FD0E04617E4
:1018A00080F42EE02C9FF0012D9FF00D1124EB51C0
:1018B000FC4FE40FF11D208130E1230F08F42FEFDE
:1018C0002083262F30E07EE07C9FF0017D9FF00D8D
:1018D0001124EB51FC4FEF01C20FD31F788110E2AE
:1018E000710F08F47FEF78839E3040F4E90FF11D0B
:1018F000708110E1710F08F47FEF7083A53070F5EF
:10190000B0E0461780F47EE07A9FF0017B9FF00DF7
:101910001124EB51FC4FE40FF11D70811DE0710F9C
:1019200008F47FEF70837EE07A9FF0017B9FF00DDB
:101930001124EB51FC4FDF01A20FB31F7C9110E18A
:10194000710F08F47FEF7C939E3040F4E90FF11D96
:1019500070811DE0710F08F47FEF7083581778F5E0
:10196000A52FB0E0461780F48EE08A9FF0018B9F90
:10197000F00D1124EB51FC4FE40FF11D40815DE0AF
:10198000450F08F44FEF40838EE08A9FF0018B9F54
:10199000F00D1124EB51FC4FDF01A20FB31F2C916E
:1019A00030E1230F08F42FEF2C939E3040F4E90F21
:1019B000F11D20813DE0230F08F42FEF2083DF91FC
:1019C000CF911F91089545E050E06CE170E08BE409
:1019D00095E00C946B3045E050E06CE170E08BE4F6
:1019E00095E00C948930EBE4F5E085E2808380910A
:1019F000220290912302A091240281839283A383E7
:101A00008FE784830C94EB0C80E008950F931F9371
:101A1000CF93DF93C82FD62F8A010E94040D9EE03A
:101A2000C99FF0011124EC5FFE4FED0FF11D908175
:101A30009F3F29F0F801E80FF11D90838F5FDF9140
:101A4000CF911F910F910895E0917303F09174036A
:101A50000994E0916F03F091700309944F925F92A3
:101A60006F927F928F929F92AF92BF92CF92DF92AE
:101A7000EF920F931F93CF93DF932C013B01FC0157
:101A8000C0818DE0C89FC02D1124DDE0DC0FD03473
:101A900008F0DFE360914F056695809150059091C5
:101AA00051050E94120A182FCD1708F044C08C2E41
:101AB000912CF401E853FE4F9081F201818189233A
:101AC000C1F1F401EE0FFF1FE65BFE4FC080D12C89
:101AD000F0E7CF1AD108F401EE0FFF1FE55BFE4FD0
:101AE000A080B12C80E2A81AB108CC9C9001CD9CBA
:101AF000300D300D1124AA9CC001AB9C900D900DAF
:101B00001124820F931F0E941C0A082F60914C051C
:101B100070914D0580914E05E12E9501A601F301CE
:101B200009950E943F0C462F282F672FC4010E9461
:101B3000290DCF5FB9CF81E0DF3308F080E0DF917E
:101B4000CF911F910F91EF90DF90CF90BF90AF900A
:101B50009F908F907F906F905F904F9008956EEF61
:101B60007BE00C942E0D69EC7AE00C942E0D6BE268
:101B70007CE00C942E0DAF92BF92CF92DF92EF9249
:101B8000FF920F931F93CF93DF936C015B01FC01D6
:101B9000C0818DE0C89FC02D1124DDE0DC0FD03462
:101BA00008F0DFE360914F056695809150059091B4
:101BB00051050E94120A182FCD1778F5EC2EF12C42
:101BC000F701E853FE4F9081F6018181892319F1D5
:101BD000F701EE0FFF1FE55BFE4F208130E0205242
:101BE0003109F701EE0FFF1FE65BFE4F408150E029
:101BF0004057510960914C0570914D0580914E05FB
:101C0000012FF50109950E943F0C462F282F672FC1
:101C1000C7010E94290DCF5FCFCF81E0DF3308F0ED
:101C200080E0DF91CF911F910F91FF90EF90DF90B7
:101C3000CF90BF90AF9008956FED7BE00C94BB0DFB
:101C400068ED7AE00C94BB0D6AE17CE00C94BB0D6E
:101C5000BF92CF92DF92EF92FF920F931F93CF9399
:101C6000DF938C017B01FC01C0818DE0C89FC02DFA
:101C70001124DDE0DC0FD03408F0DFE360914F0584
:101C80006695669580915005909151050E94120AC3
:101C9000B82ECD17F0F4CC2ED12CF601E853FE4F20
:101CA0009081F8018181892391F060914C057091B8
:101CB0004D0580914E052B2D4C2FF70109950E9463
:101CC0003F0C462F282F672FC6010E94290DCF5F9A
:101CD000E0CF81E0DF3308F080E0DF91CF911F910A
:101CE0000F91FF90EF90DF90CF90BF9008956EE638
:101CF0007AE00C94280E6AE97AE00C94280E6CE9DC
:101D00007AE00C94280E65EA7AE00C94280E6EEACC
:101D10007AE00C94280E7F928F929F92AF92BF929E
:101D2000CF92DF92EF92FF920F931F93CF93DF93A7
:101D30006C015B01FC01C0818DE0C89FC02D1124A6
:101D4000DDE0DC0FD03408F0DFE360914F056695ED
:101D5000669580915005909151050E94120A182FA6
:101D600080E4810F0E944D0A90E8F92EF80E812F31
:101D70000E944D0A20E8722E780ECD1700F58C2EA9
:101D8000912CF401E853FE4F9081F6018181892363
:101D9000A1F060914C0570914D0580914E05E12EAA
:101DA0000C2F272D4F2DF50109950E943F0C462F32
:101DB000282F672FC4010E94290DCF5FDECF81E05D
:101DC000DF3308F080E0DF91CF911F910F91FF90FA
:101DD000EF90DF90CF90BF90AF909F908F907F90CB
:101DE000089561E07BE00C948B0E6FE27BE00C9435
:101DF0008B0E61E67BE00C948B0EAF92BF92CF927C
:101E0000DF92EF92FF920F931F93CF93DF937C01AA
:101E10005B01FC01C0818DE0C89FC02D1124DDE075
:101E2000DC0FD03408F0DFE320914F0530E040E0D4
:101E300050E06FEF7FEF80E090E00E94BF2F8901BC
:101E4000CD17E8F5CC2ED12CF601E853FE4F90814A
:101E5000F7018181892389F190915405915097FD73
:101E600015C0292F092E000C330BF901EC5AFA4F3B
:101E70008189C813F3CF220F331FF901EC5AFA4FAF
:101E8000218D328D2017310748F701C098016091EC
:101E90004F05C9010E94120AAC0160914C05709176
:101EA0004D0580914E05F50109950E943F0C462F86
:101EB000282F672FC6010E94290DCF5FC1CF81E077
:101EC000DF3308F080E0DF91CF911F910F91FF90F9
:101ED000EF90DF90CF90BF90AF9008956FE97BE0D7
:101EE0000C94FD0E66EA7BE00C94FD0EDF92EF92FF
:101EF000FF920F931F93CF93DF938C01DC018C91A2
:101F0000CDE08C9FC02D1124DDE0DC0FD03408F033
:101F1000DFE360914C0570914D0580914E050E9464
:101F20003F0CF62EE72ED82ECD1798F4EC2FF0E0CC
:101F3000DF01A853BE4F8C91D80111969C91982334
:101F400031F02D2D4F2D6E2DCF010E94290DCF5F29
:101F5000EBCF81E0DF3308F080E0DF91CF911F917C
:101F60000F91FF90EF90DF900895AF92BF92CF92C4
:101F7000DF92EF92FF920F931F93CF93DF938C0129
:101F8000FC01C0818DE0C89FC02D1124DDE0DC0F75
:101F9000D03408F0DFE3E0904D05F0904E05D0908E
:101FA0004C056D2D7E2D8F2D0E943F0CC62EB72E19
:101FB000A82E60914F056D0D7E2D8F2D0E943F0C38
:101FC000F62EE72ED82ECD17B8F48C2F90E0FC011A
:101FD000E853FE4F3081F8012181232359F030FF6F
:101FE00004C02D2D4F2D6E2D03C02A2D4C2D6B2D91
:101FF0000E94290DCF5FE7CF81E0DF3308F080E05A
:10200000DF91CF911F910F91FF90EF90DF90CF90D4
:10201000BF90AF900895BF92CF92DF92EF92FF9260
:102020000F931F93CF93DF937C01FC01C0818DE060
:10203000C89FC02D1124DDE0DC0FD03408F0DFE3B1
:10204000C0904D05B0904E0520914F0530E4D32E41
:102050003D2D329F312D1124D32ECD1738F50C2F65
:1020600010E0F801E853FE4F9081F7018181892348
:10207000D9F0F801EE0FFF1FE65BFE4F6081D69EA0
:10208000B001112495E0759567959A95E1F78091D7
:102090004C05680F7C2D8B2D0E943F0C462F282F5E
:1020A000672FC8010E94290DCF5FD7CF81E0DF33B2
:1020B00008F080E0DF91CF911F910F91FF90EF909A
:1020C000DF90CF90BF900895DF92EF92FF920F9331
:1020D0001F93CF93DF938C01DC01CC918DE0C89FDF
:1020E000C02D1124DDE0DC0FD03408F0DFE3E090F8
:1020F0004C05F0904D05D0904E0560914F056695CA
:102100006695669580915005909151050E94120A3E
:102110000E944D0A805887FD8195880F282F3D2DFC
:10212000239F212D1124822FB7010E943F0CF62EF0
:10213000E72ED82ECD1798F4EC2FF0E0DF01A8534E
:10214000BE4F8C91D80111969C91982331F02D2D82
:102150004F2D6E2DCF010E94290DCF5FEBCF81E077
:10216000DF3308F080E0DF91CF911F910F91FF9056
:10217000EF90DF900895DF92EF92FF920F931F93FD
:10218000CF93DF93EC01FC01E853FE4F908169236C
:1021900081F1D0904D0500914E0510914C05E12E36
:1021A000F12C0E945230282FC7018C549F4F68E6B3
:1021B00071E00E94AB2F8E199F0997FD03969595AC
:1021C0008795959587952370612F289F600D112421
:1021D0007D2D802F0E943F0C462F282F672FCE0188
:1021E000DF91CF911F910F91FF90EF90DF900C94B2
:1021F000290DDF91CF911F910F91FF90EF90DF900C
:102200000895CF92DF92FF920F931F93CF93DF93A6
:102210008C01FC01C281C1111DC060914F0520E1FC
:10222000620F08F46FEF80915005909151050E9464
:10223000120A6AE070E00E94972F892B59F50E94DC
:1022400052306FE370E00E94AB2FF80161810E9471
:10225000BB1020C0FC018081CDE08C9FC02D1124DB
:102260009DE0F92EFC0EFFE3FF1510F48FE3F82E2E
:10227000D0E0CF2CD12CCC15DD053CF4F8016181E8
:10228000CE010E94BB102196F6CFC1E0FEE3FF1500
:1022900008F4C0E08C2FDF91CF911F910F91FF9038
:1022A000DF90CF9008951F93CF93DF93FC01E85305
:1022B000FE4F20816223A9F0EC010E945230182FBA
:1022C0000E945230612F782F80914E050E943F0C62
:1022D000462F282F672FCE01DF91CF911F910C94AD
:1022E000290DDF91CF911F910895CF92DF92FF9238
:1022F0000F931F93CF93DF938C01FC01C281C11117
:102300001DC060914F0520E1620F08F46FEF8091CE
:102310005005909151050E94120A65E070E00E94FC
:10232000972F892B59F50E9452306FE370E00E947D
:10233000AB2FF80161810E94531120C0FC01808104
:10234000CDE08C9FC02D11249DE0F92EFC0EFFE303
:10235000FF1510F48FE3F82ED0E0CF2CD12CCC1544
:10236000DD053CF4F8016181CE010E9453112196F4
:10237000F6CFC1E0FEE3FF1508F4C0E08C2FDF913B
:10238000CF911F910F91FF90DF90CF900895E09132
:102390007103F091720309942F923F924F925F92D2
:1023A0006F927F928F929F92AF92BF92CF92DF9265
:1023B000EF92FF920F931F93CF93DF93CDB7DEB7CA
:1023C0002B970FB6F894DEBF0FBECDBF5C01DC01CA
:1023D0008C910DE0809F002D1124BDE0B00FB987D6
:1023E000B73410F0E6E4E987D50112968C91882382
:1023F00061F040E060E080E00E94C71186E4E5EE15
:10240000F3E0DF011D928A95E9F7F50180818111E2
:1024100015C080912D0490912E040E94092821E07E
:102420008931910508F420E020932C04499730F07D
:102430000E94F12790932E0480932D0410E099853B
:10244000892F90E09B878A878EE0482EDE011196C7
:102450003D019AEA292E8A859B85081719070CF0F9
:1024600064C0C80165E070E00E94AB2F7B014C01A5
:10247000489EF001499EF00D1124EB51FC4FE60FF0
:10248000F71F5080A3010E94060D382E63018C2D8A
:102490008619831508F032C0D601EC91F0E0E853BC
:1024A000FE4F9081F5018181892321F1252D35E5AC
:1024B000231B08F420E0622D621B70914D05222D34
:1024C000352D230F08F42FEF30914E0582E0289F21
:1024D000200D11242E5F239F212D1124822F0E9475
:1024E0003F0C462FD6019C91282F672F892F90E013
:1024F0000E94290DBFEFCB1ADB0AC9CF80912C04B3
:10250000882381F0252D31E0231B08F420E0489C2E
:10251000C001499C900D11248B519C4FFC01EE0D84
:10252000FF1D20830F5F1F4F96CF81E09985963462
:1025300008F080E02B960FB6F894DEBF0FBECDBF3B
:10254000DF91CF911F910F91FF90EF90DF90CF908F
:10255000BF90AF909F908F907F906F905F904F90C3
:102560003F902F900895AF92BF92CF92DF92EF925B
:10257000FF920F931F93CF93DF93CDB7DEB72897CA
:102580000FB6F894DEBF0FBECDBFE82ED62E142FA7
:102590000E94B91B882309F476C0112349F0AE01CB
:1025A0004F5F5F4F6D2D8E2D0E94060DF82E01C0DE
:1025B000F12CC090B8030F2D10E0C8018C0D911DB7
:1025C000099764F188E090E05C01A01AB10AB801B3
:1025D00067547C4FA50189EB93E00E946230B801FB
:1025E0006F537C4FA50181EC93E00E946230A501FE
:1025F000440F551FB801660F771F6F527C4F81ED56
:1026000093E00E946230B80167537C4FA50189ECCA
:1026100093E00E946230CA94C092B8031091B8034C
:10262000DE01119640E0842F810FF41609F190E04D
:102630005D91252F30E0BC0168547C4FF901EE0F0D
:10264000FF1FE65BFE4F0081FB010183220F331F5A
:10265000F901E55BFE4F2081FB012187518B880F3B
:10266000991FFC01E854FC4F128E118E4F5FDBCF97
:102670008093B80380914B058C7F843521F46D2DB8
:102680008E2D0E94420C28960FB6F894DEBF0FBE26
:10269000CDBFDF91CF911F910F91FF90EF90DF9011
:1026A000CF90BF90AF90089508950C9454130E945A
:1026B00055130C94000308950C945B13CF93DF9390
:1026C000FC01C081C1508DE0C89FC02D1124DDE008
:1026D000DC0FD03408F0DFE36D2F8C2F0E945C13E9
:1026E0006D2F8C2FDF91CF910C945B134F925F92E3
:1026F0006F927F928F929F92AF92BF92CF92DF9212
:10270000EF92FF92CF936091E1037091E203809189
:10271000E3039091E4030E9418286B017C010E945E
:10272000FD274B015C016093E1037093E20380930A
:10273000E3039093E403A091B803E8EBF3E08A2F5E
:1027400090E04FEF5FEF60E070E04C195D096E09BB
:102750007F09A91799F0218D328D2901612C712CE7
:10276000441555056605770510F4815004C02C0DFD
:102770003D1D328F218F9F5F3296EBCF8093B80340
:1027800080912B04811108C0C0914B058C2F837060
:1027900019F0C695C69501C0C0E080910F02813046
:1027A000E9F038F0823009F4D9C0833009F4E6C08A
:1027B000F6C0109210028092500590925105A0929E
:1027C0005205B092530589E2E8EBF3E0A4E5B5E0E9
:1027D00001900D928A95E1F781E0CAC080911302C1
:1027E000C8130DC020914B05237030E040911402B6
:1027F00050E081E02417350719F480E001C081E042
:102800008170809312024C2F50E04831510508F03E
:1028100081C0FA01EA5AFF4F0C94DE2F882309F495
:1028200079C040E060E080E00E94C71173C080E1A1
:1028300092E00E94760F6FC080E192E00E94B50F97
:102840006AC080E192E00E940B1065C080E192E0D6
:102850000E94641060C080E192E00E94770E5BC02D
:1028600080E192E00E941C0E56C080E192E00E943E
:10287000AF0D51C080E192E00E947B0E4CC080E120
:1028800092E00E947F0E47C080E192E00E94830E9A
:1028900042C080E192E00E94870E3DC080E192E05C
:1028A0000E94B30D38C080E192E00E94200E33C038
:1028B00080E192E00E94240E2EC080E192E00E940E
:1028C000B70D29C080E192E00E94F10E24C080E1A2
:1028D00092E00E94F50E1FC080E192E00E94F90E86
:1028E0001AC080E192E00E94011115C080E192E0DF
:1028F0000E94751110C080E192E00E94CC110BC0C3
:1029000080E192E00E946E0F06C080E192E00E949A
:10291000720F01C080E0909110029F5F90931002AF
:10292000811129C082E080930F02809112028111EF
:1029300022C0CC23E1F00E94571380E192E0CF91B6
:10294000FF90EF90DF90CF90BF90AF909F908F90CF
:102950007F906F905F904F900C945E13C093130222
:1029600080914B058370809314020E94240D83E0B4
:1029700080930F0214C0CC2391F0DDCF60915005FD
:102980007091510580915205909153050E9418282D
:10299000603171058105910510F010920F02CF9101
:1029A000FF90EF90DF90CF90BF90AF909F908F906F
:1029B0007F906F905F904F900895E0916D03F0913C
:1029C0006E03099510925405EDE6F5E08FEF9FEF49
:1029D0008193919325E0ED37F207D1F71092B80378
:1029E000E1EDF3E08FEF9FEF8193919323E0E13EE0
:1029F000F207D1F70E940126811104C00E94A82687
:102A00000E94F30C0E94E30C80914B058C7F11F423
:102A10000C94F30C0895CF93C82F882329F040E03D
:102A200060E080E00E94C711C0932B04CF9108950D
:102A300020914B0591E0922790934B0510920F0245
:102A400081110C94EB0C089581E00C941815909171
:102A50004B05937091F0811102C0946007C08831DA
:102A600010F09C6503C0880F880F982B90934B053E
:102A700010920F0261110C94EB0C089561E00C941C
:102A80002715682F90914B05969596959F5F9831E5
:102A900010F4892F01C081E00C94271581E00C947B
:102AA0004115682F90914B0596959695915011F090
:102AB000892F01C087E10C94271581E00C945115F2
:102AC00090914B05937049F080934C0560934D05B0
:102AD00040934E0521110C94EB0C0895ABE4B5E046
:102AE0001196EC911197F0E0282F13964C911397C3
:102AF00012966C91CF0108960C94601581E00C94AD
:102B00006E15ABE4B5E01196EC911197F0E0282F2B
:102B100013964C91139712966C91CF0108970C94D1
:102B2000601581E00C948115EBE4F5E0628120E111
:102B3000620F08F46FEF9181282F4381892F90E075
:102B40000C94601581E00C949415EBE4F5E062813F
:102B500020E1621B08F460E09181282F4381892FD6
:102B600090E00C94601581E00C94A515EBE4F5E081
:102B7000438120E1420F08F44FEF9181282F6281B9
:102B8000892F90E00C94601581E00C94B615EBE46D
:102B9000F5E0438120E1421B08F440E09181282FB9
:102BA0006281892F90E00C94601581E00C94C71528
:102BB00020914F0530E1230F08F42FEF20934F05AC
:102BC00081110C94EB0C089581E00C94D8152091A0
:102BD0004F0530E1231B08F420E020934F058111BD
:102BE0000C94EB0C089581E00C94E71560E080E50F
:102BF0000E94841761E080E50C948417CF930E94B3
:102C0000791A60E080E50E945A16C0E021E041E0B8
:102C100061E08C2F0E94E816CF5FCF33B9F760E0F8
:102C200080E50E94B61761E080E5CF910C94B6175D
:102C30006093FD064093FE0624E630E042E050E05B
:102C40006DEF76E0880F0E94061B21E0892B09F0CA
:102C500020E0822F0895EF92FF921F93CF93DF938E
:102C60007B01182F110FC0E0D0E0C093FD06D70103
:102C7000AC0FBD1FEEEFF6E08D91819387E0EE3053
:102C8000F807D1F724E630E041E150E06DEF76E05F
:102C9000812F0E94061B892B31F46096C03CD10520
:102CA00021F781E001C080E0DF91CF911F91FF907B
:102CB000EF9008951F93CF93DF93C82FD62F45EC45
:102CC0006EEF0E94181640E06DEF8C2F0E941816D0
:102CD00010E040E0612F8C2F0E9418161F5F183102
:102CE000C1F745EC6EEF8C2F0E94181641E06DEF96
:102CF0008C2F0E94181610E040E0612F8C2F0E944C
:102D000018161F5F103CC1F745EC6EEF8C2F0E9428
:102D1000181643E06DEF8C2F0E9418164FEF61E0FC
:102D20008C2F0E94181680E4D89FA00111244160C6
:102D300060E08C2F0E9418168FE39CE90197F1F751
:102D400000C00000DF91CF911F9108958F3391054E
:102D500020F5880F991F880F991FFC01EB5DFD4F2F
:102D600052813381808183707181E82FF0E0A0EC83
:102D70008A9FC001112483589A4FDC01A70FB11D0F
:102D80006C93DC01A50FB11D4C93DC01A30FB11DA9
:102D90002C93EF59FB4F81E080830895FF920F93AE
:102DA0001F93CF93DF93182F062FF42EC0E0D0E0AF
:102DB0002F2D402F612FCE010E94A6162196CF33D2
:102DC000D105B1F7DF91CF911F910F91FF90089539
:102DD000CF93DF9334E0839FC0011124FC01EB5DAE
:102DE000FD4F8081837051819281C381A52FA6956B
:102DF000A695A695392F369536953695EC2FE695FE
:102E0000E695E6955770F92FF770C77090E0B0E03F
:102E1000D8E1662391F0D89FB001D99F700D11249D
:102E20006F5C7B4FA60FB71F61E070E001C0660FBB
:102E30005A95EAF75C91652B12C0D89FB001D99FD3
:102E4000700D11246F5C7B4FA60FB71F61E070E01F
:102E500001C0660F5A95EAF760955C9165236C9303
:102E6000632F70E038E1389FD001399FB00D1124F5
:102E7000AF5CBB4FA60FB71F442349F041E050E0C1
:102E800001C0440FFA95EAF73C91432B09C041E099
:102E900050E001C0440FFA95EAF740953C91432376
:102EA0004C934E2F50E0222399F028E1289FF00107
:102EB000299FF00D1124EF5CFB4FE40FF51F21E07B
:102EC00030E001C0220FCA95EAF73081232B13C0EE
:102ED00028E1289FF001299FF00D1124EF5CFB4FA2
:102EE000E40FF51F21E030E001C0220FCA95EAF798
:102EF0002095308123232083FC01E15DFB4F21E0FD
:102F00002083DF91CF910895EF92FF921F93CF938B
:102F1000DF93C62FD0E09E012F593B4F7901F90175
:102F200090819923D9F0182F45EC6EEF0E94181666
:102F300041E06DEF812F0E94181680EC8C9FB0014C
:102F40008D9F700D112463587A4F812F0E942B168C
:102F5000811104C0C15DDB4F81E08883F7011082DD
:102F6000DF91CF911F91FF90EF900895CF92DF9264
:102F7000FF920F931F93CF93DF93262F30E0A90189
:102F8000415D5B4F6A01FA01908191110AC0F6011F
:102F90001082DF91CF911F910F91FF90DF90CF9022
:102FA0000895C62FF82E45EC6EEF0E94181640E0EB
:102FB0006DEF8F2D0E941816F8E1CF9FE0011124CC
:102FC00000E010E0F801EC0FFD1FEF5CFB4F4081CB
:102FD000602F8F2D0E9418160F5F1F4F08311105AB
:102FE00089F7D5CF882311F0FA0101C0FB010994BC
:102FF0000F931F93CF93FB01C281CC2309F450C0E0
:103000008C010E9455258272F801E35CFC45E43195
:10301000F10508F048C0E259FF4F0C94DE2F0E94E2
:10302000241540C04DE555E16EE475E104C04EE461
:1030300055E16DE575E10E94F21734C041E955E1B3
:103040006EE775E1F8CF4EE755E161E975E1F3CF41
:1030500043EB55E162EA75E1EECF42EA55E163EBFD
:1030600075E1E9CF45ED55E164EC75E1E4CF44EC61
:1030700055E165ED75E1DFCF43EF55E164EE75E1B4
:10308000DACF44EE55E163EF75E1D5CF81E005C0BD
:1030900084E003C089E001C08EE00E943E1502C0BA
:1030A000C1E001C0C0E08C2FCF911F910F91089516
:1030B0000F931F93CF93DF93C42FD22FFC018281F4
:1030C0008823C9F0409365040E94F127909364041B
:1030D0008093630480E28C0F883008F057C0C7707B
:1030E00081E001C0880FCA95EAF7DF91CF911F9167
:1030F0000F910C947F1D80916504481330C080911E
:103100006304909164040E940928883C910538F575
:1031100010E21D0FCD17B9F080E28C0F883040F41B
:10312000C77081E001C0880FCA95EAF70E94861D2A
:10313000183028F581E09D2F977001C0880F9A956F
:10314000EAF70E947F1D802F0E94761D1830F0F450
:10315000D77081E001C0880FDA95EAF70AC080E2F3
:103160008C0F883098F4C77081E001C0880FCA9531
:10317000EAF7DF91CF911F910F910C94861D802F5C
:10318000DF91CF911F910F910C94761DDF91CF911C
:103190001F910F9108950F939C01CB01243F4CE5A3
:1031A000340731F188F4293DFCE53F07D9F02A3D89
:1031B0004CE5340779F1283D3C45A9F506E221EEBE
:1031C00041EE68ED7CE52BC0263FFCE53F07E1F0D2
:1031D000A8F0273F3C4539F507E225EE46EE67EFBC
:1031E0007CE51DC007E225EE45EE69ED7CE517C0E4
:1031F00006E221EE40EE64EF7CE511C007E225EE29
:1032000044EE65EF7CE50BC006E221EE42EE66EF90
:103210007CE505C008E221E045EE6AED7CE50E9410
:10322000581880E008C0FC018281882319F01092B0
:10323000650401C081E00F910895CF93DF93EC0105
:10324000FB018281882309F41FC1C230FCE5DF073E
:1032500008F41BC1C6319CE5D90738F09E012B5FED
:103260003C452930310508F010C10E941426909386
:10327000160780931507C031ECE5DE0709F4C3C0DB
:1032800008F041C0C8308CE5D80709F49AC0F0F4C2
:10329000C430ECE5DE0709F487C068F4C2308CE581
:1032A000D80709F477C0C330DC4509F0E3C080914A
:1032B0001507826076C0C630ECE5DE0709F46EC003
:1032C00008F07BC08091150788606BC0CC308CE51E
:1032D000D80709F485C068F4CA30ECE5DE0709F4C4
:1032E00074C008F079C00E9406208091150780689C
:1032F00058C0CE308CE5D80709F476C008F07FC0FE
:10330000809115078BC0CC3FECE5DE0709F44FC078
:1033100018F5C3318CE5D80709F47DC078F4C131C4
:10332000ECE5DE0709F473C0C231DC4509F0A2C048
:103330000E940620809115078F7733C0C5318CE538
:10334000D80709F472C008F486C0CB3FDC4509F009
:1033500091C0809116073EC0C115FDE5DF0709F455
:103360005FC058F4CE3F9CE5D90709F444C008F487
:103370003FC08091160782602DC0C230FDE5DF0797
:1033800009F475C008F45DC0C330DD4509F072C0B2
:1033900080E06EC080911507816003C080911507A1
:1033A00080618093150766C08091150711C08091D8
:1033B00016078260809316075DC0809115078062B2
:1033C000F0CF809115078064ECCF8091150788605D
:1033D0008460E7CF8160EECF809115078E7FE1CFCB
:1033E000809115078D7FDDCF80911507877FD9CF1D
:1033F0008091160718C0809116078D7FDBCF8091D2
:1034000015078F7ECECF809115078F7DCACF809113
:1034100015078F7BC6CF80911507877F8B7FC1CF24
:10342000809116078D7F8E7FC5CF8091150782FB17
:10343000222720F991E0922790FB82F990FB83F9F3
:10344000B0CF80911607982F909591708E7F892B21
:1034500090FB81F9AFCF0E9406208091150787FB72
:10346000222720F991E0922790FB87F99ACF81E0FB
:103470000E94AA2680911507909116070E94252682
:103480000E94062080E001C081E0DF91CF91089585
:10349000CF93DF9386319C4541F5EB010E94552582
:1034A000982F8A812091150230911602882379F095
:1034B0009A7A81E009F480E080936604911102C059
:1034C00069E201C065E3C9010E9445270AC08091F5
:1034D0006604811102C069E201C065E3C9010E946E
:1034E00050270E94962580E001C081E0DF91CF91B6
:1034F00008951092B9008CE08093B8000895EF927F
:10350000FF920F931F93CF93DF93182FEB0110922D
:10351000BC0084EA8093BC000E94F1277C0180916A
:10352000BC0087FD0EC0CF3F8FEFD807C1F30E94CC
:10353000F1278E199F098C179D0788F38EEF9FEF57
:103540002EC08091B900887F883041F08091B90009
:10355000887F803119F08FEF9FEF21C01093BB005F
:1035600084E88093BC000E94F1278C018091BC000C
:1035700087FD0CC0CF3F8FEFD807C1F30E94F12722
:10358000801B910B8C179D0788F3D8CF8091B900D1
:10359000887F883111F08034F1F680E090E0DF918F
:1035A000CF911F910F91FF90EF9008950F931F936C
:1035B000CF93DF93EB018093BB0084E88093BC0042
:1035C0000E94F1278C018091BC0087FD0EC0CF3F87
:1035D0008FEFD807C1F30E94F127801B910B8C1746
:1035E0009D0788F38EEF9FEF0CC02091B900287FD4
:1035F00081E090E0283211F480E090E0919581958F
:103600009109DF91CF911F910F910895CF92DF9291
:10361000EF92FF920F931F93CF93DF936B018A0179
:103620007901B9010E947F1AE6010C0D1D1DC0171A
:10363000D10761F424E92093BC00DF91CF911F9161
:103640000F91FF90EF90DF90CF90089597FDF2CF0C
:10365000B70189910E94D61AEACF90936C048093A7
:103660006B040895E0916B04F0916C04309721F0A5
:103670000190F081E02D099480E00895E0916B04C1
:10368000F0916C04309711F480E008950190F0817E
:10369000E02D09950895E0916B04F0916C0430974A
:1036A00099F020912102222359F02091150727FF3C
:1036B00007C0DC012C9111962C93119725E02C93D7
:1036C0000280F381E02D09940895E0916B04F0915C
:1036D0006C04309739F022E0DC012C930480F581F2
:1036E000E02D099408952091690430916A04281707
:1036F000390771F090936A0480936904E0916B0438
:10370000F0916C04309721F00680F781E02D099448
:10371000089520916704309168042817390771F0E3
:103720009093680480936704E0916B04F0916C04BB
:10373000309721F00084F185E02D099408950E94CE
:10374000FD2760937C0470937D0480937E049093A6
:103750007F04609378047093790480937A04909343
:103760007B04089585B7806885BF85B7806885BF6D
:10377000089581E008950C94B91B08950C94BD1B25
:103780000C94BD1B0C94C01B0C94BD1B0C94C41B4F
:103790000C94BD1B0E94B21B89EF95E20E947E280B
:1037A0000E94C81B0C94C61B0E94E8270E94EB05D0
:1037B0000E9499280C94C21B6F927F928F929F92C5
:1037C000AF92BF92CF92DF92EF92FF920F931F932F
:1037D000CF93DF93CDB7DEB72A970FB6F894DEBF4D
:1037E0000FBECDBF0E94BE1B0E94BD1B0E941D06C6
:1037F00081110E949F1B3EE6832E34E0932E00E051
:1038000010E0E02E802F0E94B9055C01F401619068
:1038100071904F016826792661147104B1F40F5F2D
:103820001F4F0530110569F78FEF89838A831B824B
:103830000E94F1278160782F9D838C8349815A8172
:103840006B818D810E94A11C43C08091130581FD75
:103850000E94C205F12CCC24C394D12CC3018C212D
:103860009D21892B71F10E94BB1BAC20BD208823B8
:10387000A1F0FE82EF8281E0A114B10409F480E09E
:1038800088870E94F1278160782F9A8789874E81E7
:103890005F8168858A850E94A11C000F111FF801B5
:1038A000E259FB4F80819181C826D926D182C082FE
:1038B00041E0AB2809F440E06F2D8E2D0E94B31239
:1038C00007C0F394CC0CDD1CFEE0FF12C7CFA7CFDE
:1038D0000E9476130E945D080E94321B90916D0435
:1038E0008917D1F00E94321B80936D042A960FB67F
:1038F000F894DEBF0FBECDBFDF91CF911F910F9126
:10390000FF90EF90DF90CF90BF90AF909F908F90FF
:103910007F906F900C94C4032A960FB6F894DEBF84
:103920000FBECDBFDF91CF911F910F91FF90EF9010
:10393000DF90CF90BF90AF909F908F907F906F90CF
:103940000895CF93DF93CDB7DEB72B970FB6F894DA
:10395000DEBF0FBECDBF4F83588769877A878B87BD
:10396000DE01119686E0FD0111928A95E9F785E066
:10397000FE01379601900D928A95E1F749815A81AF
:103980006B817C818D819E810E94BF222B960FB618
:10399000F894DEBF0FBECDBFDF91CF910895FC013B
:1039A000808191810E9416250895CF93882309F480
:1039B00050C0C82F8CEF8C0F813AD0F46C2F8091BF
:1039C0001502909116020E94C526882349F06C2F9B
:1039D00080911502909116020E9450270E94962510
:1039E0006C2F80911502909116020E9445270CC001
:1039F00080E28C0F883058F4C77081E001C0880FD6
:103A0000CA95EAF70E945825CF910C949625EBE5CC
:103A1000EC0FE33040F4F0E0ED55FC4F808190E096
:103A2000CF910C94731BE8E5EC0FE73150F4F0E014
:103A3000EE0FFF1FEB58FC4F80819181CF910C94CA
:103A4000891BCD3E30F08C2F0E946D07CF910C94D6
:103A50003F08CF910895882389F19CEF980F913A00
:103A600040F4682F80911502909116020E94502711
:103A70000DC090E2980F983058F4877091E001C023
:103A8000990F8A95EAF7892F0E945E250C94962556
:103A90009BE5980F933020F480E090E00C94731B2A
:103AA00098E5980F973120F480E090E00C94891B02
:103AB0008D3E20F00E94C8070C943F0808951F9384
:103AC000CF93DF93182FEB010E94D51C209741F074
:103AD0008FE99FE00197F1F700C000002197F6CF32
:103AE000812FDF91CF911F910C942B1D893319F0F9
:103AF00060E070E002C060E570E00C945F1D882318
:103B000021F00E9458250C9496250895882321F0D1
:103B10000E945E250C9496250895CF92DF92EF9235
:103B2000FF920F931F93CF93DF937C01D62FC72F64
:103B3000FC01058102950F70128111110E947525FB
:103B40000E944E25882399F0112389F08C2F807FC5
:103B5000803421F080E28D0F883048F082E00E94AE
:103B6000E0250E944E2591E0D82ED92601C0D12C07
:103B7000CC2EC2948FE0C8228C2D90E08C30910521
:103B800008F0B6C1FC01EE57FF4F0C94DE2F8C2FCE
:103B9000807FCF70882311F0C295C07F112399F0E8
:103BA000CC2309F491C180E28D0F883010F0D1113F
:103BB00004C08C2F0E94582503C08C2F0E946825BA
:103BC0000E94962581C18D2F0E942B1DCC2309F4C4
:103BD0008FC180E28D0F883010F0D11104C08C2F7E
:103BE0000E945E2503C08C2F0E946E250E949625A0
:103BF0007FC18C2F807FCF70803211F0C295C07F43
:103C0000DD2319F0D130C9F022C0112371F0002357
:103C100041F0013031F40E947B258C2B0E948325DA
:103C200067C10E947B258C2B1DC0002319F0013039
:103C300009F45EC10E948C2525C0112321F00630B5
:103C400008F056C10EC0053008F052C11BC0112348
:103C500061F0002331F0F701858180FF35C18F705D
:103C600085838C2F0E947F1D43C1002359F0D933D7
:103C700009F03BC1FFEF07EE13E0F15000401040A8
:103C8000E1F731C18C2F0E94861D32C18C2F8695A1
:103C90008695837019F0813061F02AC1112321F0DB
:103CA0008D2F9C2F937002C080E090E00E94731BC8
:103CB00027C1112321F08D2F9C2F937002C080E02B
:103CC00090E00E94891B1CC18D2F112319F00E94C6
:103CD0006D0702C00E94C8070E943F0811C18C2FC7
:103CE000837009F047C0111107C12D2F2295269529
:103CF0002770220F220F6D2F6F70862F90E0A0E0AB
:103D0000B0E0022E04C0880F991FAA1FBB1F0A949F
:103D1000D2F7D4FF10C04FE050E060E070E004C084
:103D2000440F551F661F771F2A95D2F7409550956F
:103D30006095709503C040E050E0BA01C695C69505
:103D4000C3708A019B01082B192B2A2B3B2BC9011D
:103D5000B801C23049F058F4C13019F00E949323E1
:103D6000CBC00E948123C8C00E94A523C5C00E9469
:103D70007F23C2C0112319F08C2F817001C086955A
:103D8000882309F4B9C02D2F229526952770220F7C
:103D9000220F6D2F6F70862F90E0A0E0B0E0022E12
:103DA00004C0880F991FAA1FBB1F0A94D2F7D4FF23
:103DB00010C04FE050E060E070E004C0440F551FB9
:103DC000661F771F2A95D2F740955095609570959C
:103DD00003C040E050E0BA01C695C695C3708A01A1
:103DE0009B01082B192B2A2B3B2BC901B801C23090
:103DF00049F058F4C13019F00E9458247DC00E9447
:103E000046247AC00E946A2477C00E94B92374C0F5
:103E1000CF70112339F08C2F0E94DF238D2F0E9449
:103E20007F1D6AC08D2F0E94861D8C2F0E9400244A
:103E300063C0D23F01F128F4D03F41F0D13FA1F05F
:103E40003FC0D33FF9F0D43F39F13AC0112341F0DC
:103E5000053008F04DC08C2F8F710E94252448C07A
:103E6000063008F045C0F7CF112339F08C2F8F7141
:103E70000E94DF233DC01123C9F38C2F8F710E9454
:103E8000002436C0112329F08C2F8F710E94CA2381
:103E90002FC00E94C5232CC0112349F0CF718C2F55
:103EA0000E94DF2363E08C2F0E94CB2521C081E09C
:103EB0000E94E0250230E0F082E00E94E02518C078
:103EC000112331F0002391F28D2F0E94D51C10C0D8
:103ED000002399F2D93349F41FEF27EE33E0115054
:103EE00020403040E1F700C000008D2F0E942B1DC4
:103EF00088EF8C0D843020F40E94321B0E94C40392
:103F0000DD20C9F00E944A2580FD15C0F70112820C
:103F10000E9444250E94DF23C7010E94BC1F0E940B
:103F20004425DF91CF911F910F91FF90EF90DF908B
:103F3000CF900C940024DF91CF911F910F91FF90AF
:103F4000EF90DF90CF9008950F931F93CF93DF935F
:103F5000EC01688179818A810E9421258C010E946F
:103F60007C240E946D23B801CE010E948D1DDF913B
:103F7000CF911F910F910895CF93DF93EC0198811A
:103F800089812B813C81232B31F08F3F31F481E0FB
:103F90009F3F19F403C081E001C080E080FD19C09B
:103FA000CE010E947A0381110CC00E944E25882305
:103FB00081F08A81882369F082E0DF91CF910C94AF
:103FC000E025CE010E94A41FCE01DF91CF910C9479
:103FD0005103DF91CF91089580E090E00E94731B20
:103FE00080E090E00E94891B0E9475250E94782540
:103FF0000E9496250E9470090C943F08809115023A
:10400000909116020E945B270C94EC1F0E9465257C
:104010000C94FE1FE92FE295EF704E2F50E0FA014D
:104020003297EE30F105B0F4E257FF4F0C94DE2FDB
:10403000803F91F018F4883E68F40EC0843F51F43C
:104040000BC0883E48F0813F29F406C093FB8827C7
:1040500080F9089580E0089581E008950E94162572
:104060000E940A200895CF93DF9300D000D01F92C2
:10407000CDB7DEB70F900F900F900F900F90DF919C
:10408000CF910895CF93DF9300D000D000D0CDB76B
:10409000DEB726960FB6F894DEBF0FBECDBFDF9118
:1040A000CF9108951F93CF93DF93C091810416E0C1
:1040B00080918204C81799F0D0E01C9FF0011D9FE9
:1040C000F00D1124ED57FB4F4081518162817381C6
:1040D000848195810E9442202196C770E9CFDF91AB
:1040E000CF911F9108954091B3045091B404609111
:1040F000B5047091B6048091B7049091B8040C9403
:1041000042200F931F93CF93DF938091B804829541
:104110008F7009F05DC08091B504882309F458C000
:1041200080918104109182046091B3047091B40471
:10413000C091B604D091B70491E06F3F09F090E0D0
:10414000292F06E0811709F443C0209721F07F3F13
:1041500021F030E003C031E001C0322F90E030FDAB
:1041600034C0089FF001099FF00D1124DF01AD5705
:10417000BB4F11963C911197371327C03C913613D2
:1041800024C012963C91129731111FC013964D9185
:104190005C9114974C1B5D0B483C5105B0F4809129
:1041A000B8048F7080618093B804E857FB4F80811A
:1041B0008F708061808383EB94E00E94BC1FDF914D
:1041C000CF911F910F910C94522001968770BACF16
:1041D000DF91CF911F910F9108959F92AF92BF925F
:1041E000CF92DF92EF92FF920F931F93CF93DF93C3
:1041F000CDB7DEB761970FB6F894DEBF0FBECDBF67
:104200008C0185E0F801DE011D9601900D928A95E2
:10421000E1F7F80140815181E2809091B30460910F
:10422000B4042091B6043091B7042115310531F062
:104230006F3F31F481E09F3F19F403C081E001C07A
:1042400080E0F82FF1709F2E80FD46C1F801A38019
:10425000B48083EBC82E84E0D82EF090B504F5012D
:10426000E21BF30BFF2009F4DFC08091B804E83CA7
:10427000F10508F09BC0282F207F09F052C056138B
:1042800013C0491311C0FE2CE1100EC08F70806165
:104290008093B8040E947320C6010E94BC1F8091C5
:1042A000B804F801858358C1AB2831F05F3F31F481
:1042B00081E04F3F19F403C081E001C080E080FD40
:1042C00003C081E08E2502C080E090E0F82FF170FD
:1042D000FF2E80FF1CC0809181042091820436E073
:1042E000821709F417C190E0389FF001399FF00D53
:1042F0001124ED57FB4F6181561306C060814613B0
:1043000003C06281E61203C001968770E9CFFE2CDC
:10431000EE2009F421C18091B80481608093B80433
:104320005AC0561306C0491304C0E11002C0F80178
:104330009FC04D875E878D859E850E942E20882395
:1043400079F1EE2069F12091B804822F82958F7067
:1043500090E0029774F08091B3049091B404988730
:104360008F831986BB86AA862C87CE0107960E946A
:10437000BC1F86E0F801A3EBB4E001900D928A9592
:10438000E1F70E9481200E9473200DC0561729F189
:104390004D875E878D859E850E942E2081112CC0C1
:1043A000C8010E94BC1FFF24F394D6C0282F207F91
:1043B00069F77A2DB98AA88A6E2D89890E943320DF
:1043C00083EB94E00E94BC1F86E0F60111928A956F
:1043D000E9F70E947320F12CBFC04913D9CFE11037
:1043E000D7CFF8018583C8010E94BC1F86E0F60183
:1043F00011928A95E9F7B0C0EE2091F22091B804AD
:10440000822F82958F7090E002970CF4B2CF80914A
:10441000B3049091B4049A8389831B82BD82AC82D9
:104420002E83CE010196A3CFE83CF10508F047C0EA
:10443000FE2CEE2009F4B4CF561330C049132EC021
:104440002091B80420FD21C0822F82958F70482FC3
:1044500050E041155105C9F0F80125834F30510551
:1044600041F08F5F982F9295907F822F8F70892BCC
:104470008583C8010E94BC1F86E0F801A3EBB4E06D
:1044800001900D928A95E1F742C086E0F801A3EB16
:10449000B4E001900D928A95E1F75EC04D875E878A
:1044A0008D859E850E942E20811163CF8091B80456
:1044B00081608093B804C8010E94BC1F4DC07A2D52
:1044C000B98AA88A6E2D89890E94332086E0F60178
:1044D00011928A95E9F71BC0EE2009F461CF4D8750
:1044E0005E878D859E850E942E20F82E882309F4F4
:1044F00057CF86E0F801A3EBB4E001900D928A95C6
:10450000E1F783EB94E00E94CF1C0E9481200E947F
:10451000732022C04D875E878D859E850E9416255B
:10452000292F22952F70223028F49F7039F08111A5
:1045300005C00BC0243028F49F7049F4805E883099
:1045400020F0C8010E94BC1F9F2CF92C05C0F80167
:104550009581907F99F7F9CF8F2D61960FB6F894DA
:10456000DEBF0FBECDBFDF91CF911F910F91FF90A6
:10457000EF90DF90CF90BF90AF909F9008951F93E2
:10458000CF93DF93CDB7DEB72C970FB6F894DEBF8D
:104590000FBECDBF4F83588769877A878B879C87EB
:1045A000CE0107960E94ED208823D1F09F81888557
:1045B0002A853B85232B31F08F3F31F481E09F3FEB
:1045C00019F403C081E001C080E080FD47C04F8145
:1045D000588569857A858B859C850E9442203EC0DE
:1045E00086E0FE013796DE01119601900D928A95C4
:1045F000E1F7FF81E8856A857B856115710531F0FA
:10460000EF3F31F481E0FF3F19F403C081E001C0C6
:1046100080E080FD23C02091820430E0C901019632
:10462000877099274091810450E084179507F1F134
:10463000F983EA837D836C8396E0929FD001939FF8
:10464000B00D1124AD57BB4FFE01319601900D9274
:104650009A95E1F7809382040E94522016E080919F
:10466000810490918204891771F1189FC00111246F
:104670008D579B4F0E94ED20882329F1E091810402
:104680001E9FF0011124ED57FB4F40815181628143
:104690007381848195810E9442208091810490E001
:1046A00001968770992780938104D9CF0E940620B4
:1046B0001092820410928104E3EBF4E086E0DF01C3
:1046C0001D928A95E9F72C960FB6F894DEBF0FBEBF
:1046D000CDBFDF91CF911F910895089508950C9457
:1046E0006E230C946F230E9471236093EA047093ED
:1046F000EB048093EC049093ED040C94EC1F0C9469
:1047000073230F931F930091EA041091EB042091FF
:10471000EC043091ED04602B712B822B932B1F91B5
:104720000F910C9473230F931F930091EA0410913F
:10473000EB042091EC043091ED046023712382237B
:1047400093231F910F910C9473230F931F93009148
:10475000EA041091EB042091EC043091ED04602701
:104760007127822793271F910F910C9473230C9428
:104770006E230E94B7236093E6047093E70480934E
:10478000E8049093E9040C94EC1F60E070E0CB0126
:104790000C94B9230F931F9341E050E060E070E068
:1047A0008A019B0104C0000F111F221F331F8A952D
:1047B000D2F7C901B8011F910F910C94B9230F933F
:1047C0001F9341E050E060E070E004C0440F551FCB
:1047D000661F771F8A95D2F78091E6049091E704CF
:1047E000A091E804B091E9048A019B01082B192BE0
:1047F0002A2B3B2BC901B8011F910F910C94B923AF
:104800000F931F9341E050E060E070E004C0440F5C
:10481000551F661F771F8A95D2F740955095609572
:1048200070958091E6049091E704A091E804B0911E
:10483000E9048A019B01082319232A233B23C90188
:10484000B8011F910F910C94B9230F931F9341E06E
:1048500050E060E070E004C0440F551F661F771FF2
:104860008A95D2F78091E6049091E704A091E8043C
:10487000B091E9048A019B01082719272A273B27C1
:10488000C901B8011F910F910C94B9230F931F9385
:104890000091E6041091E7042091E8043091E904C6
:1048A000602B712B822B932B1F910F910C94B923AA
:1048B0000F931F930091E6041091E7042091E80400
:1048C0003091E90460237123822393231F910F9178
:1048D0000C94B9230F931F930091E6041091E70401
:1048E0002091E8043091E9046027712782279327FB
:1048F0001F910F910C94B92308952EE0929F800D83
:104900001124E82FE695E695E695877051E001C001
:10491000550F8A95EAF785E0E89FF0011124E754E6
:10492000FB4F20E030E070E04081CB01022E02C05E
:10493000969587950A94E2F781708195842785235F
:10494000842781932F5F3F4F2530310569F7089504
:104950002EE0929F800D1124682F669566956695CE
:10496000982F977085E0689FB001112440E050E0D7
:1049700080E0FB01E40FF51FE754FB4F208130E09E
:10498000092E02C0369527950A94E2F72170332745
:10499000042E01C0220F0A94EAF7822B4F5F5F4F6B
:1049A0004530510531F70895BF92CF92DF92EF92D3
:1049B000FF920F931F93CF93DF938C01C090E60477
:1049C000D090E704E090E804F090E9048091EA04D4
:1049D0009091EB04A091EC04B091ED04C82AD92A7F
:1049E000EA2AFB2ACFE1D0E0D701C6010C2E04C091
:1049F000B695A795979587950A94D2F780FD04C040
:104A0000219790F7B12C07C0BC2EB8018C2F0E94C3
:104A1000E0030197A9F38B2DDF91CF911F910F91A7
:104A2000FF90EF90DF90CF90BF900895CF93DF93EA
:104A3000EC010E94D424BE010E94E003DF91CF91DB
:104A400008951F93CF93DF93EB01909180049923F6
:104A500021F0CB010E94162513C0882349F0CB0119
:104A60000E94D424182F682FCE010E947D2404C0F8
:104A7000CB010E94A824182FBE01812F0E94E003C1
:104A8000DF91CF911F9108958091EE0485958595D2
:104A9000859508958091EE04877008959091EE04B5
:104AA000977081E009F480E00895809112050895DF
:104AB00090911205892B809312050895809590910D
:104AC0001205892380931205089510921205089506
:104AD00090911105892B80931105089580959091EF
:104AE00011058923809311050895109211050895E9
:104AF0001092100508958091EF04089508950C9484
:104B00007E250C947F259091EF04981721F08093D7
:104B1000EF040C94812508958091EF04882329F0F7
:104B20001092EF0480E00C9481250895E091150225
:104B3000F0911602809112058083E0911502F091A8
:104B40001602908180911105892B8083E0911502D6
:104B5000F0911602908180911005892B80838091BD
:104B6000EF04882381F0E0911502F0911602908104
:104B7000892B808380911502909116020E94AF26A6
:104B800081110E948C2580911502909116020C943F
:104B90004B1B0C947E2598E0899F90011124262BB5
:104BA0002093EE040E94DF238091EE048595859585
:104BB00085950C94C9251092EE0480E00C94C925CB
:104BC0002091EE04809582238093EE04982F9770B5
:104BD00079F430E0482F082E000C550B24173507C8
:104BE00039F08595859585950E9400240C94DB25E8
:104BF000089580E008956FEF7FEF80E090E00C94DF
:104C0000B73080E090E00E94833021E08B3E9E4FE1
:104C100009F020E0822F089582E090E00C947B3030
:104C200083E090E00C947B30CF9384E090E00E948E
:104C30007B30C82F81E290E00E947B302C2F30E047
:104C4000A901582BCA01CF910895CF93C92F682F7E
:104C500084E090E00E9499306C2F81E290E0CF9147
:104C60000C949930AB01BC018FE090E00C94AB3018
:104C7000AB01BC0183E190E00C94AB3060E070E0EC
:104C8000CB010C94382660E070E0CB010E94322604
:104C90000C943E266BEE7EEF80E090E00E94B730F1
:104CA00060E082E090E00E94993060E083E090E074
:104CB0000E9499301092EA041092EB041092EC04D6
:104CC0001092ED0460E084E090E00E94993060E092
:104CD00081E290E00E94993060E085E090E00E94DF
:104CE000993060E086E090E00E9499306FEF87E0B5
:104CF00090E00E94993040E050E0BA0188E090E0F6
:104D00000E94AB3060E08DE090E00E94993040E07E
:104D100050E0BA0188E190E00E94AB3060E087E1AA
:104D200090E00E94993040E050E0BA018CE190E0C0
:104D30000E94AB3060E080E290E00E94993040E059
:104D400050E0BA0188E190E00E94AB300C94432619
:104D50000C944A26682F8EE090E00C949930FC0168
:104D6000329680912102882331F08091150787FFC8
:104D700002C09EE101C096E080E0915028F02191B0
:104D80002223D9F38F5FF9CF0895662351F1209143
:104D900021022223E9F02091150727FF19C0462F91
:104DA0004695469546954E31E0F4677021E030E037
:104DB00002C0220F331F6A95E2F7FC01E40FF11DD8
:104DC000828190E02823392381E0232B69F409C0F4
:104DD000FC01329608962191621729F0E817F9072D
:104DE000D1F780E0089581E008959C01FC0132969E
:104DF0009FEF80E04191461789F09F3F19F44111E0
:104E000001C0982F8F5F8630A9F79F3F39F0F901D5
:104E1000E90FF11D97FDFA956283089508959C01AD
:104E20002A5F3F4FFC014281461301C01282019666
:104E300082179307B9F70895262F2695269526956C
:104E40002E3168F4FC01E20FF11D677021E030E0C3
:104E500001C0220F6A95EAF78281282B22830895E8
:104E6000262F2695269526952E3170F4FC01E20F0B
:104E7000F11D677021E030E001C0220F6A95EAF76A
:104E800020958281282322830895209121022223C4
:104E900029F02091150727FD0C941C270C94F5266A
:104EA00020912102222329F02091150727FD0C943F
:104EB00030270C940F2720912102FC0132962223E7
:104EC00031F08091150787FF02C08EE101C086E0B6
:104ED000DF011D928A95E9F7089508950C946D27D6
:104EE0000C946D27CF930E9470270E941D060E948C
:104EF0006E27C0E08C2F0E94B905892B29F4CF5F63
:104F0000C530C1F780E001C081E0CF9108950C94D5
:104F10006D2780911B07843049F10E94F60280E0E2
:104F20000E94C4031092140520E488E190E00FB6BB
:104F3000F894A895809360000FBE2093600083B71B
:104F4000817F846083BF83B7816083BF78948895B5
:104F500083B78E7F83BF0FB6F894A89580916000C9
:104F6000886180936000109260000FBE08950E94D7
:104F700006200E94321B0E94C4030C94FB021F9265
:104F80000F920FB60F9211248F939F93AF93BF93FD
:104F900080911405811113C080911107909112071F
:104FA000A0911307B09114074196A11DB11D8093E4
:104FB000110790931207A0931307B0931407BF91A2
:104FC000AF919F918F910F900FBE0F901F901895EA
:104FD00082E084BD93E095BD9AEF97BD80936E000B
:104FE00008952FB7F8948091110790911207A0911E
:104FF0001307B09114072FBF08952FB7F89460914D
:1050000011077091120780911307909114072FBF19
:1050100008959C014FB7F894809111079091120761
:10502000A0911307B09114074FBF821B930B0895F3
:10503000CF92DF92EF92FF922FB7F894C0901107B2
:10504000D0901207E0901307F09014072FBFA7012C
:105050009601261B370B480B590BCA01B901FF906B
:10506000EF90DF90CF90089578941F920F920FB633
:105070000F9211248F939F93AF93BF938091110749
:1050800090911207A0911307B09114070196A11DEA
:10509000B11D8093110790931207A0931307B0934B
:1050A0001407BF91AF919F918F910F900FBE0F90FA
:1050B0001F90189581E08093E00080E28093D800F3
:1050C0001092C9008FE19EE40197F1F700C0000043
:1050D00087E090EBDC018093240790932507A09351
:1050E0002607B09327079CE088E10FB6F894A895AF
:1050F000809360000FBE90936000FFCF9093A70352
:105100008093A60308950C94FB250E941D068FEB47
:105110009DE50197F1F700C000000E941D0680E0A8
:105120000E94B90580FF04C00E9483280C945A286D
:1051300008950E940126811102C00E94A8260E94A3
:105140000C26809313050E941426909316078093D3
:1051500015070E941026682F70E080E090E00E9402
:105160007F236091E6047091E7048091E8049091B8
:10517000E9040C94B723809135050895CF93DF930C
:1051800000D01F92CDB7DEB790911B07943019F570
:1051900089837B836A8382E08093E9008FEF90911B
:1051A000E800815095FD06C095ED9A95F1F7000055
:1051B0008111F5CF8091E80085FF0DC040E050E0FF
:1051C00063E070E0CE0101960E94F92A8091E80028
:1051D0008E778093E8000F900F900F90DF91CF9122
:1051E0000895BC0184E00C94BE28BC0183E00C94BB
:1051F000BE2822E02093E9002FEF3091E8002150F3
:1052000035FD06C035ED3A95F1F700002111F5CFD7
:105210002091E80025FF0BC040E050E066E070E020
:105220000E94F92A8091E8008E778093E800089523
:10523000CF93DF9320912102222339F0209115078B
:1052400027FF03C060E222E002C068E021E0209373
:10525000E9002FEF3091E800215035FD06C035ED13
:105260003A95F1F700002111F5CF2091E80025FFD4
:105270001DC0EC0180912102811105C040E050E089
:1052800068E070E003C070E040E050E0CE010E94B2
:10529000F92A8091E8008E778093E80080E2FE0191
:1052A000A5E1B5E001900D928A95E1F7DF91CF91EC
:1052B000089580911A07811109C00E948A2C0E94CA
:1052C000E72C8091E20084608093E20008951092C0
:1052D0001A07089508950895089542E061EC81E069
:1052E0000E94032C42E261EC82E00C94032C80913A
:1052F0001D07833009F460C030F4813071F08230D2
:1053000009F499C008958A3009F485C08B3009F4F6
:105310006BC0893009F0A7C020C080911C07813A7A
:1053200009F0A1C08091E800877F8093E800809118
:10533000200790912107892B21F460E285E195E017
:1053400003C060E080E090E070E00E94442B809118
:10535000E8008B778093E800089580911C078132E4
:1053600009F081C08091200790912107029708F0F1
:105370007AC08091E800877F8093E8008091E80000
:1053800082FD05C080911B078111F8CF6CC0209170
:10539000F3008091F20090E0922B029729F4809123
:1053A000F1008B7F813021F48091F10080933505ED
:1053B0008091E8008B7753C080911C07813A09F0F7
:1053C00052C08091200790912107892B09F04BC092
:1053D0008091E800877F8093E8008091E80080FF5B
:1053E000FCCF8091210236C080911C078132D9F513
:1053F0008091200790912107892BA9F58091E800E1
:10540000877F8093E8000E94382C80911E0780934C
:1054100021020C94062080911C07813221F5809195
:10542000E800877F8093E8000E94382C80911F0756
:1054300080933605089580911C07813AA1F48091EC
:10544000E800877F8093E8008091E80080FFFCCF30
:10545000809136058093F1008091E8008E778093EB
:10546000E8000C94382C089584B7877F84BF0FB66A
:10547000F894A895809160008861809360001092F4
:1054800060000FBE90E080E80FB6F8948093610052
:10549000909361000FBE0E94CA1B0E948A2C0E943A
:1054A000E72C8091E20084608093E20078940E946F
:1054B0007C2F0E94D41B87E192E00E942D1B8091DB
:1054C0001B078530F1F480911B078530C1F40E94E1
:1054D0008927809119078823B1F30E9472278823B6
:1054E00091F30E94E32A0E9406202FEF83EC99E0BB
:1054F000215080409040E1F700C00000E4CF0E94BE
:10550000B7270E94DC1B0E94BE1B0E94BD1BD7CF89
:105510000C948A2A292F332723303105C9F060F4EF
:105520002130310581F02230310509F044C08BE390
:1055300090E026E134E043C021323105E1F022322F
:10554000310549F138C082E190E021E534E037C00F
:1055500099278130910549F028F0029761F5E0EF35
:10556000F3E005C0E2E1F4E002C0E2E0F4E084919F
:1055700090E09F0124C06115710541F06130710513
:10558000D1F489E090E021E434E019C089E090E0B2
:1055900028E234E014C06115710541F061307105F5
:1055A00051F486EB90E023E634E009C080E490E01B
:1055B00029E135E004C080E090E020E030E0FA012D
:1055C00031832083089580E189BD82E189BD09B4DA
:1055D00000FEFDCF8091D8008F7D8093D800809110
:1055E000E00082608093E0008091E00081FDFCCFCC
:1055F0000895CF92DF92EF92FF920F931F93CF9374
:10560000DF93EC018B017A010E94572C811133C08A
:10561000E114F10439F0F70180819181081B190B25
:10562000C80FD91FC12CD12C0115110519F180917A
:10563000E80085FD16C08091E8008E778093E80031
:10564000E114F10449F0F70180819181C80ED91E5F
:10565000D182C08285E00FC00E94572C882321F39D
:105660000AC089918093F10001501109FFEFCF1A10
:10567000DF0ADACF80E0DF91CF911F910F91FF9089
:10568000EF90DF90CF90089520912207309123076B
:105690002617370748F06115710539F42091E800A5
:1056A0002E772093E80001C0B901FC0120E06115CC
:1056B000710579F180911B078823F1F18530F1F1B3
:1056C0008091E80083FD3CC08091E80082FD2EC0FF
:1056D0008091E80080FFEBCF2091F3008091F200F1
:1056E00090E0922B6115710551F08830910538F4E6
:1056F00021912093F100615071090196F3CF21E0CF
:10570000089709F020E08091E8008E778093E80008
:10571000CECF2111CFCF0AC080911B07882361F023
:10572000853061F08091E80083FD0AC08091E80037
:1057300082FFF2CF80E0089582E0089583E008952B
:1057400081E008952091220730912307261737071B
:1057500048F06115710539F42091E8002E77209307
:10576000E80001C0B901FC0120E06115710591F16B
:1057700080911B07882309F440C0853009F43FC09D
:105780008091E80083FD3DC08091E80082FD2FC03C
:105790008091E80080FFE9CF2091F3008091F20032
:1057A00090E0922B6115710559F08830910540F415
:1057B00024912093F1003196615071090196F2CF46
:1057C00021E0089709F020E08091E8008E7780932F
:1057D000E800CBCF2111CCCF0AC080911B078823D2
:1057E00061F0853061F08091E80083FD0AC080910E
:1057F000E80082FFF2CF80E0089582E0089583E020
:10580000089581E00895982F973068F59093E90006
:10581000981739F07091EC002091ED005091F00054
:1058200003C0242F762F50E021FD02C09F5FECCFF4
:105830003091EB003E7F3093EB003091ED003D7FE7
:105840003093ED003091EB0031603093EB007093BA
:10585000EC002093ED005093F0002091EE0027FD26
:10586000E5CF80E008958F708093E90081E008958E
:1058700080911C0787FF11C08091E80082FD05C060
:1058800080911B078111F8CF11C08091E8008B77C0
:105890000BC080911B07882349F08091E80080FFAE
:1058A000F8CF8091E8008E778093E80008952091EA
:1058B000E4003091E50095E64091EC00842F817082
:1058C00040FF23C08091E80080FD1DC080911B0730
:1058D000882399F0853099F08091EB0085FD11C007
:1058E0004091E4005091E5002417350729F39150C9
:1058F00011F09A01E1CF84E0089582E0089583E0F9
:10590000089581E0089580E008954091E80042FF05
:10591000DDCF08950E94F82C0E94002DE0EEF0E00B
:10592000808181608083E8EDF0E080818F778083E3
:1059300019BCA7EDB0E08C918E7F8C9380818F7E17
:10594000808310921A0708950F931F93CF93DF93CC
:105950000E94F82C0E94002DC8EDD0E088818F773E
:10596000888388818068888388818F7D888319BC3B
:1059700010921B0710921707109219071092180720
:1059800000EE10E0F80180818B7F80838881816048
:10599000888342E060E080E00E94032CE1EEF0E0CA
:1059A00080818E7F8083E2EEF0E080818160808361
:1059B000808188608083F80180818E7F80838881E8
:1059C00080618883DF91CF911F910F910895E8ED59
:1059D000F0E080818F7E8083E7EDF0E08081816060
:1059E000808384E082BF81E080931A070C94A42C0A
:1059F000E8EDF0E080818E7F80831092E2000895D0
:105A00001092DA001092E10008951F920F920FB6E3
:105A10000F9211242F933F934F935F936F937F9334
:105A20008F939F93AF93BF93EF93FF938091E10088
:105A300082FF0BC08091E20082FF07C08091E100ED
:105A40008B7F8093E1000E947B2F8091DA0080FFA2
:105A50001FC08091D80080FF1BC08091DA008E7F2C
:105A60008093DA008091D90080FF0DC080E189BD6C
:105A700082E189BD09B400FEFDCF81E080931B0760
:105A80000E94592905C019BC10921B070E94672962
:105A90008091E10080FF19C08091E20080FF15C075
:105AA0008091E2008E7F8093E2008091E20080612D
:105AB0008093E2008091D80080628093D80019BC66
:105AC00085E080931B070E946B298091E10084FF91
:105AD00030C08091E20084FF2CC080E189BD82E16A
